{
  "_format": "hh-sol-artifact-1",
  "contractName": "RedPacket",
  "sourceName": "contracts/RedPacket.sol",
  "abi": [
    {
      "inputs": [
        {
          "internalType": "uint256",
          "name": "_count",
          "type": "uint256"
        },
        {
          "internalType": "bool",
          "name": "_isEqual",
          "type": "bool"
        }
      ],
      "stateMutability": "payable",
      "type": "constructor"
    },
    {
      "inputs": [],
      "name": "AlreadyGrabbed",
      "type": "error"
    },
    {
      "inputs": [],
      "name": "InsufficientAmount",
      "type": "error"
    },
    {
      "inputs": [],
      "name": "NoAmountLeft",
      "type": "error"
    },
    {
      "inputs": [],
      "name": "NoRedPacketsLeft",
      "type": "error"
    },
    {
      "inputs": [],
      "name": "TransferFailed",
      "type": "error"
    },
    {
      "anonymous": false,
      "inputs": [
        {
          "indexed": true,
          "internalType": "address",
          "name": "creator",
          "type": "address"
        },
        {
          "indexed": false,
          "internalType": "uint256",
          "name": "totalAmount",
          "type": "uint256"
        },
        {
          "indexed": false,
          "internalType": "uint256",
          "name": "count",
          "type": "uint256"
        },
        {
          "indexed": false,
          "internalType": "bool",
          "name": "isEqual",
          "type": "bool"
        }
      ],
      "name": "RedPacketCreated",
      "type": "event"
    },
    {
      "anonymous": false,
      "inputs": [
        {
          "indexed": true,
          "internalType": "address",
          "name": "grabber",
          "type": "address"
        },
        {
          "indexed": false,
          "internalType": "uint256",
          "name": "amount",
          "type": "uint256"
        },
        {
          "indexed": false,
          "internalType": "uint256",
          "name": "remainingCount",
          "type": "uint256"
        }
      ],
      "name": "RedPacketGrabbed",
      "type": "event"
    },
    {
      "inputs": [],
      "name": "creator",
      "outputs": [
        {
          "internalType": "address",
          "name": "",
          "type": "address"
        }
      ],
      "stateMutability": "view",
      "type": "function"
    },
    {
      "inputs": [],
      "name": "getBalance",
      "outputs": [
        {
          "internalType": "uint256",
          "name": "",
          "type": "uint256"
        }
      ],
      "stateMutability": "view",
      "type": "function"
    },
    {
      "inputs": [],
      "name": "getRedPacketInfo",
      "outputs": [
        {
          "internalType": "address",
          "name": "_creator",
          "type": "address"
        },
        {
          "internalType": "uint256",
          "name": "_initialAmount",
          "type": "uint256"
        },
        {
          "internalType": "uint256",
          "name": "_remainingAmount",
          "type": "uint256"
        },
        {
          "internalType": "uint256",
          "name": "_initialCount",
          "type": "uint256"
        },
        {
          "internalType": "uint256",
          "name": "_remainingCount",
          "type": "uint256"
        },
        {
          "internalType": "bool",
          "name": "_isEqual",
          "type": "bool"
        }
      ],
      "stateMutability": "view",
      "type": "function"
    },
    {
      "inputs": [],
      "name": "grabRedPacket",
      "outputs": [],
      "stateMutability": "nonpayable",
      "type": "function"
    },
    {
      "inputs": [
        {
          "internalType": "address",
          "name": "",
          "type": "address"
        }
      ],
      "name": "grabbedAmount",
      "outputs": [
        {
          "internalType": "uint256",
          "name": "",
          "type": "uint256"
        }
      ],
      "stateMutability": "view",
      "type": "function"
    },
    {
      "inputs": [
        {
          "internalType": "address",
          "name": "",
          "type": "address"
        }
      ],
      "name": "hasGrabbed",
      "outputs": [
        {
          "internalType": "bool",
          "name": "",
          "type": "bool"
        }
      ],
      "stateMutability": "view",
      "type": "function"
    },
    {
      "inputs": [],
      "name": "initialCount",
      "outputs": [
        {
          "internalType": "uint256",
          "name": "",
          "type": "uint256"
        }
      ],
      "stateMutability": "view",
      "type": "function"
    },
    {
      "inputs": [],
      "name": "initialTotalAmount",
      "outputs": [
        {
          "internalType": "uint256",
          "name": "",
          "type": "uint256"
        }
      ],
      "stateMutability": "view",
      "type": "function"
    },
    {
      "inputs": [],
      "name": "isEqual",
      "outputs": [
        {
          "internalType": "bool",
          "name": "",
          "type": "bool"
        }
      ],
      "stateMutability": "view",
      "type": "function"
    },
    {
      "inputs": [],
      "name": "remainingAmount",
      "outputs": [
        {
          "internalType": "uint256",
          "name": "",
          "type": "uint256"
        }
      ],
      "stateMutability": "view",
      "type": "function"
    },
    {
      "inputs": [],
      "name": "remainingCount",
      "outputs": [
        {
          "internalType": "uint256",
          "name": "",
          "type": "uint256"
        }
      ],
      "stateMutability": "view",
      "type": "function"
    }
  ],
  "bytecode": "0x610100604052604051610f75380380610f75833981810160405281019061002691906101cb565b60003403610060576040517f5945ea5600000000000000000000000000000000000000000000000000000000815260040160405180910390fd5b6000820361009a576040517f5945ea5600000000000000000000000000000000000000000000000000000000815260040160405180910390fd5b3373ffffffffffffffffffffffffffffffffffffffff1660808173ffffffffffffffffffffffffffffffffffffffff16815250503460a08181525050346000819055508160c081815250508160018190555080151560e081151581525050426004819055503373ffffffffffffffffffffffffffffffffffffffff167f0b3fa1200abdbe61913a255af495037bc9929ea74fa225e0513a76a0d01e2f8e34848460405161014993929190610229565b60405180910390a25050610260565b600080fd5b6000819050919050565b6101708161015d565b811461017b57600080fd5b50565b60008151905061018d81610167565b92915050565b60008115159050919050565b6101a881610193565b81146101b357600080fd5b50565b6000815190506101c58161019f565b92915050565b600080604083850312156101e2576101e1610158565b5b60006101f08582860161017e565b9250506020610201858286016101b6565b9150509250929050565b6102148161015d565b82525050565b61022381610193565b82525050565b600060608201905061023e600083018661020b565b61024b602083018561020b565b610258604083018461021a565b949350505050565b60805160a05160c05160e051610cb96102bc600039600081816103090152818161034401526104f401526000818161023301526102e50152600081816102c1015261036801526000818161020f01526102a00152610cb96000f3fe608060405234801561001057600080fd5b50600436106100a95760003560e01c80639faf4537116100715780639faf453714610168578063a50a1fe61461018b578063acbe8452146101a9578063c46e6f67146101c7578063c4712e21146101e5578063d8753aa5146101ef576100a9565b806302d05d3f146100ae5780630306d1f3146100cc57806312065fe0146100ea5780637f65872a14610108578063928326e814610138575b600080fd5b6100b661020d565b6040516100c391906107e0565b60405180910390f35b6100d4610231565b6040516100e19190610814565b60405180910390f35b6100f2610255565b6040516100ff9190610814565b60405180910390f35b610122600480360381019061011d9190610860565b61025d565b60405161012f91906108a8565b60405180910390f35b610152600480360381019061014d9190610860565b61027d565b60405161015f9190610814565b60405180910390f35b610170610295565b604051610182969594939291906108c3565b60405180910390f35b61019361033c565b6040516101a09190610814565b60405180910390f35b6101b1610342565b6040516101be91906108a8565b60405180910390f35b6101cf610366565b6040516101dc9190610814565b60405180910390f35b6101ed61038a565b005b6101f7610713565b6040516102049190610814565b60405180910390f35b7f000000000000000000000000000000000000000000000000000000000000000081565b7f000000000000000000000000000000000000000000000000000000000000000081565b600047905090565b60026020528060005260406000206000915054906101000a900460ff1681565b60036020528060005260406000206000915090505481565b6000806000806000807f00000000000000000000000000000000000000000000000000000000000000007f00000000000000000000000000000000000000000000000000000000000000006000547f00000000000000000000000000000000000000000000000000000000000000006001547f0000000000000000000000000000000000000000000000000000000000000000955095509550955095509550909192939495565b60005481565b7f000000000000000000000000000000000000000000000000000000000000000081565b7f000000000000000000000000000000000000000000000000000000000000000081565b6000600154036103c6576040517f31ea7cd500000000000000000000000000000000000000000000000000000000815260040160405180910390fd5b6000805403610401576040517fe7c49c6a00000000000000000000000000000000000000000000000000000000815260040160405180910390fd5b600260003373ffffffffffffffffffffffffffffffffffffffff1673ffffffffffffffffffffffffffffffffffffffff16815260200190815260200160002060009054906101000a900460ff1615610485576040517fbd1335a100000000000000000000000000000000000000000000000000000000815260040160405180910390fd5b6001600260003373ffffffffffffffffffffffffffffffffffffffff1673ffffffffffffffffffffffffffffffffffffffff16815260200190815260200160002060006101000a81548160ff021916908315150217905550600060018054036104f25760005490506105a6565b7f00000000000000000000000000000000000000000000000000000000000000001561052f576001546000546105289190610982565b90506105a5565b6000600154600260005461054391906109b3565b61054d9190610982565b905060005481111561055f5760005490505b6000610569610719565b9050600a818361057991906109b3565b6105839190610982565b92506000830361059257600192505b6000548311156105a25760005492505b50505b5b806000808282546105b791906109f5565b92505081905550600160008154809291906105d190610a29565b919050555080600360003373ffffffffffffffffffffffffffffffffffffffff1673ffffffffffffffffffffffffffffffffffffffff1681526020019081526020016000208190555060003373ffffffffffffffffffffffffffffffffffffffff168260405161064090610a83565b60006040518083038185875af1925050503d806000811461067d576040519150601f19603f3d011682016040523d82523d6000602084013e610682565b606091505b50509050806106bd576040517f90b8ec1800000000000000000000000000000000000000000000000000000000815260040160405180910390fd5b3373ffffffffffffffffffffffffffffffffffffffff167fb5abd1ff1c1ebf8a4b9a732f79bb17f0d4239c3fc9d12d48ac16d9721778afd783600154604051610707929190610a98565b60405180910390a25050565b60015481565b60006004600081548092919061072e90610ac1565b9190505550600042443360045460015460005460014361074e91906109f5565b406040516020016107659796959493929190610b9d565b6040516020818303038152906040528051906020012060001c9050600160088261078f9190610c1e565b6107999190610c4f565b91505090565b600073ffffffffffffffffffffffffffffffffffffffff82169050919050565b60006107ca8261079f565b9050919050565b6107da816107bf565b82525050565b60006020820190506107f560008301846107d1565b92915050565b6000819050919050565b61080e816107fb565b82525050565b60006020820190506108296000830184610805565b92915050565b600080fd5b61083d816107bf565b811461084857600080fd5b50565b60008135905061085a81610834565b92915050565b6000602082840312156108765761087561082f565b5b60006108848482850161084b565b91505092915050565b60008115159050919050565b6108a28161088d565b82525050565b60006020820190506108bd6000830184610899565b92915050565b600060c0820190506108d860008301896107d1565b6108e56020830188610805565b6108f26040830187610805565b6108ff6060830186610805565b61090c6080830185610805565b61091960a0830184610899565b979650505050505050565b7f4e487b7100000000000000000000000000000000000000000000000000000000600052601260045260246000fd5b7f4e487b7100000000000000000000000000000000000000000000000000000000600052601160045260246000fd5b600061098d826107fb565b9150610998836107fb565b9250826109a8576109a7610924565b5b828204905092915050565b60006109be826107fb565b91506109c9836107fb565b92508282026109d7816107fb565b915082820484148315176109ee576109ed610953565b5b5092915050565b6000610a00826107fb565b9150610a0b836107fb565b9250828203905081811115610a2357610a22610953565b5b92915050565b6000610a34826107fb565b915060008203610a4757610a46610953565b5b600182039050919050565b600081905092915050565b50565b6000610a6d600083610a52565b9150610a7882610a5d565b600082019050919050565b6000610a8e82610a60565b9150819050919050565b6000604082019050610aad6000830185610805565b610aba6020830184610805565b9392505050565b6000610acc826107fb565b91507fffffffffffffffffffffffffffffffffffffffffffffffffffffffffffffffff8203610afe57610afd610953565b5b600182019050919050565b6000819050919050565b610b24610b1f826107fb565b610b09565b82525050565b60008160601b9050919050565b6000610b4282610b2a565b9050919050565b6000610b5482610b37565b9050919050565b610b6c610b67826107bf565b610b49565b82525050565b6000819050919050565b6000819050919050565b610b97610b9282610b72565b610b7c565b82525050565b6000610ba9828a610b13565b602082019150610bb98289610b13565b602082019150610bc98288610b5b565b601482019150610bd98287610b13565b602082019150610be98286610b13565b602082019150610bf98285610b13565b602082019150610c098284610b86565b60208201915081905098975050505050505050565b6000610c29826107fb565b9150610c34836107fb565b925082610c4457610c43610924565b5b828206905092915050565b6000610c5a826107fb565b9150610c65836107fb565b9250828201905080821115610c7d57610c7c610953565b5b9291505056fea2646970667358221220090ed6d8ec737d27170b1787c5c1a2428aabacdb0a5dce1b02d66c56bb86d71564736f6c634300081c0033",
  "linkReferences": {},
  "deployedLinkReferences": {}
}